{
  "fileName": "MockAggregator.sol",
  "contractName": "MockAggregator",
  "source": "// SPDX-License-Identifier: MIT\npragma solidity ^0.6.6;\n\nimport \"@openzeppelin/contracts/access/Ownable.sol\";\nimport \"@chainlink/contracts/v0.6/interfaces/AggregatorV3Interface.sol\";\n\n/**\n * @title A trusted proxy for updating where current answers are read from\n * @notice This contract provides a consistent address for the\n * CurrentAnwerInterface but delegates where it reads from to the owner, who is\n * trusted to update it.\n */\ncontract MockAggregator is AggregatorV3Interface, Ownable {\n\n\n  uint80 roundId;\n  int256 answer;\n  uint256 startedAt;\n  uint256 updatedAt;\n  uint80 answeredInRound;\n\n  constructor(\n      uint80 roundId_,\n      int256 answer_,\n      uint256 startedAt_,\n      uint256 updatedAt_,\n      uint80 answeredInRound_) public Ownable() {\n    setRoundData(roundId_,answer_, startedAt_, updatedAt_, answeredInRound_);\n  }\n\n\n\n  function latestRoundData()\n    public\n    view\n    virtual\n    override\n    returns (\n      uint80 roundId_,\n      int256 answer_,\n      uint256 startedAt_,\n      uint256 updatedAt_,\n      uint80 answeredInRound_\n    )\n  {\n    return (\n      roundId,\n      answer,\n      startedAt,\n      updatedAt,\n      answeredInRound\n    );\n  }\n\n\n  function setRoundData(\n      uint80 roundId_,\n      int256 answer_,\n      uint256 startedAt_,\n      uint256 updatedAt_,\n      uint80 answeredInRound_\n  )\n    public\n    payable\n    onlyOwner\n  {\n    roundId = roundId_;\n    answer = answer_;\n    startedAt_ = startedAt;\n    updatedAt_ = updatedAt;\n    answeredInRound_ = answeredInRound;\n  }\n\n  function getRoundData(uint80 _roundId)\n    public\n    view\n    virtual\n    override\n    returns (\n      uint80 roundId_,\n      int256 answer_,\n      uint256 startedAt_,\n      uint256 updatedAt_,\n      uint80 answeredInRound_\n    )\n  {\n    return latestRoundData();\n  }\n\n\n  function decimals()\n      public\n      override\n      view\n      returns (uint8)\n  {\n      return 0;\n  }\n\n  function description()\n      public\n      override\n      view\n      returns (string memory)\n  {\n      return \"mock\";\n  }\n\n  function version()\n      public\n      override\n      view\n      returns (uint256)\n  {\n      return 0;\n  }\n\n\n}\n",
  "sourcePath": "contracts/MockAggregator.sol",
  "abi": [
    {
      "inputs": [
        {
          "internalType": "uint80",
          "name": "roundId_",
          "type": "uint80"
        },
        {
          "internalType": "int256",
          "name": "answer_",
          "type": "int256"
        },
        {
          "internalType": "uint256",
          "name": "startedAt_",
          "type": "uint256"
        },
        {
          "internalType": "uint256",
          "name": "updatedAt_",
          "type": "uint256"
        },
        {
          "internalType": "uint80",
          "name": "answeredInRound_",
          "type": "uint80"
        }
      ],
      "stateMutability": "nonpayable",
      "type": "constructor"
    },
    {
      "anonymous": false,
      "inputs": [
        {
          "indexed": true,
          "internalType": "address",
          "name": "previousOwner",
          "type": "address"
        },
        {
          "indexed": true,
          "internalType": "address",
          "name": "newOwner",
          "type": "address"
        }
      ],
      "name": "OwnershipTransferred",
      "type": "event"
    },
    {
      "inputs": [],
      "name": "decimals",
      "outputs": [
        {
          "internalType": "uint8",
          "name": "",
          "type": "uint8"
        }
      ],
      "stateMutability": "view",
      "type": "function"
    },
    {
      "inputs": [],
      "name": "description",
      "outputs": [
        {
          "internalType": "string",
          "name": "",
          "type": "string"
        }
      ],
      "stateMutability": "view",
      "type": "function"
    },
    {
      "inputs": [
        {
          "internalType": "uint80",
          "name": "_roundId",
          "type": "uint80"
        }
      ],
      "name": "getRoundData",
      "outputs": [
        {
          "internalType": "uint80",
          "name": "roundId_",
          "type": "uint80"
        },
        {
          "internalType": "int256",
          "name": "answer_",
          "type": "int256"
        },
        {
          "internalType": "uint256",
          "name": "startedAt_",
          "type": "uint256"
        },
        {
          "internalType": "uint256",
          "name": "updatedAt_",
          "type": "uint256"
        },
        {
          "internalType": "uint80",
          "name": "answeredInRound_",
          "type": "uint80"
        }
      ],
      "stateMutability": "view",
      "type": "function"
    },
    {
      "inputs": [],
      "name": "latestRoundData",
      "outputs": [
        {
          "internalType": "uint80",
          "name": "roundId_",
          "type": "uint80"
        },
        {
          "internalType": "int256",
          "name": "answer_",
          "type": "int256"
        },
        {
          "internalType": "uint256",
          "name": "startedAt_",
          "type": "uint256"
        },
        {
          "internalType": "uint256",
          "name": "updatedAt_",
          "type": "uint256"
        },
        {
          "internalType": "uint80",
          "name": "answeredInRound_",
          "type": "uint80"
        }
      ],
      "stateMutability": "view",
      "type": "function"
    },
    {
      "inputs": [],
      "name": "owner",
      "outputs": [
        {
          "internalType": "address",
          "name": "",
          "type": "address"
        }
      ],
      "stateMutability": "view",
      "type": "function"
    },
    {
      "inputs": [],
      "name": "renounceOwnership",
      "outputs": [],
      "stateMutability": "nonpayable",
      "type": "function"
    },
    {
      "inputs": [
        {
          "internalType": "uint80",
          "name": "roundId_",
          "type": "uint80"
        },
        {
          "internalType": "int256",
          "name": "answer_",
          "type": "int256"
        },
        {
          "internalType": "uint256",
          "name": "startedAt_",
          "type": "uint256"
        },
        {
          "internalType": "uint256",
          "name": "updatedAt_",
          "type": "uint256"
        },
        {
          "internalType": "uint80",
          "name": "answeredInRound_",
          "type": "uint80"
        }
      ],
      "name": "setRoundData",
      "outputs": [],
      "stateMutability": "payable",
      "type": "function"
    },
    {
      "inputs": [
        {
          "internalType": "address",
          "name": "newOwner",
          "type": "address"
        }
      ],
      "name": "transferOwnership",
      "outputs": [],
      "stateMutability": "nonpayable",
      "type": "function"
    },
    {
      "inputs": [],
      "name": "version",
      "outputs": [
        {
          "internalType": "uint256",
          "name": "",
          "type": "uint256"
        }
      ],
      "stateMutability": "view",
      "type": "function"
    }
  ],
  "bytecode": "0x608060405234801561001057600080fd5b50604051610c4d380380610c4d833981810160405260a081101561003357600080fd5b810190808051906020019092919080519060200190929190805190602001909291908051906020019092919080519060200190929190505050600061007c61013760201b60201c565b9050806000806101000a81548173ffffffffffffffffffffffffffffffffffffffff021916908373ffffffffffffffffffffffffffffffffffffffff1602179055508073ffffffffffffffffffffffffffffffffffffffff16600073ffffffffffffffffffffffffffffffffffffffff167f8be0079c531659141344cd1fd0a4f28419497f9722a3daafe3b4186f6b6457e060405160405180910390a35061012d858585858561013f60201b60201c565b505050505061026e565b600033905090565b61014d61013760201b60201c565b73ffffffffffffffffffffffffffffffffffffffff166000809054906101000a900473ffffffffffffffffffffffffffffffffffffffff1673ffffffffffffffffffffffffffffffffffffffff161461020e576040517f08c379a00000000000000000000000000000000000000000000000000000000081526004018080602001828103825260208152602001807f4f776e61626c653a2063616c6c6572206973206e6f7420746865206f776e657281525060200191505060405180910390fd5b84600060146101000a81548169ffffffffffffffffffff021916908369ffffffffffffffffffff1602179055508360018190555060025492506003549150600460009054906101000a900469ffffffffffffffffffff1690505050505050565b6109d08061027d6000396000f3fe6080604052600436106100865760003560e01c80637284e416116100595780637284e4161461016c5780638da5cb5b146101fc5780639a6fc8f514610253578063f2fde38b146102fa578063feaf968c1461034b57610086565b80631c12940a1461008b578063313ce567146100f957806354fd4d501461012a578063715018a614610155575b600080fd5b6100f7600480360360a08110156100a157600080fd5b81019080803569ffffffffffffffffffff169060200190929190803590602001909291908035906020019092919080359060200190929190803569ffffffffffffffffffff1690602001909291905050506103c2565b005b34801561010557600080fd5b5061010e6104eb565b604051808260ff1660ff16815260200191505060405180910390f35b34801561013657600080fd5b5061013f6104f3565b6040518082815260200191505060405180910390f35b34801561016157600080fd5b5061016a6104fb565b005b34801561017857600080fd5b50610181610683565b6040518080602001828103825283818151815260200191508051906020019080838360005b838110156101c15780820151818401526020810190506101a6565b50505050905090810190601f1680156101ee5780820380516001836020036101000a031916815260200191505b509250505060405180910390f35b34801561020857600080fd5b506102116106c0565b604051808273ffffffffffffffffffffffffffffffffffffffff1673ffffffffffffffffffffffffffffffffffffffff16815260200191505060405180910390f35b34801561025f57600080fd5b506102986004803603602081101561027657600080fd5b81019080803569ffffffffffffffffffff1690602001909291905050506106e9565b604051808669ffffffffffffffffffff1669ffffffffffffffffffff1681526020018581526020018481526020018381526020018269ffffffffffffffffffff1669ffffffffffffffffffff1681526020019550505050505060405180910390f35b34801561030657600080fd5b506103496004803603602081101561031d57600080fd5b81019080803573ffffffffffffffffffffffffffffffffffffffff16906020019092919050505061070c565b005b34801561035757600080fd5b50610360610919565b604051808669ffffffffffffffffffff1669ffffffffffffffffffff1681526020018581526020018481526020018381526020018269ffffffffffffffffffff1669ffffffffffffffffffff1681526020019550505050505060405180910390f35b6103ca61096c565b73ffffffffffffffffffffffffffffffffffffffff166000809054906101000a900473ffffffffffffffffffffffffffffffffffffffff1673ffffffffffffffffffffffffffffffffffffffff161461048b576040517f08c379a00000000000000000000000000000000000000000000000000000000081526004018080602001828103825260208152602001807f4f776e61626c653a2063616c6c6572206973206e6f7420746865206f776e657281525060200191505060405180910390fd5b84600060146101000a81548169ffffffffffffffffffff021916908369ffffffffffffffffffff1602179055508360018190555060025492506003549150600460009054906101000a900469ffffffffffffffffffff1690505050505050565b600080905090565b600080905090565b61050361096c565b73ffffffffffffffffffffffffffffffffffffffff166000809054906101000a900473ffffffffffffffffffffffffffffffffffffffff1673ffffffffffffffffffffffffffffffffffffffff16146105c4576040517f08c379a00000000000000000000000000000000000000000000000000000000081526004018080602001828103825260208152602001807f4f776e61626c653a2063616c6c6572206973206e6f7420746865206f776e657281525060200191505060405180910390fd5b600073ffffffffffffffffffffffffffffffffffffffff166000809054906101000a900473ffffffffffffffffffffffffffffffffffffffff1673ffffffffffffffffffffffffffffffffffffffff167f8be0079c531659141344cd1fd0a4f28419497f9722a3daafe3b4186f6b6457e060405160405180910390a360008060006101000a81548173ffffffffffffffffffffffffffffffffffffffff021916908373ffffffffffffffffffffffffffffffffffffffff160217905550565b60606040518060400160405280600481526020017f6d6f636b00000000000000000000000000000000000000000000000000000000815250905090565b60008060009054906101000a900473ffffffffffffffffffffffffffffffffffffffff16905090565b60008060008060006106f9610919565b9450945094509450945091939590929450565b61071461096c565b73ffffffffffffffffffffffffffffffffffffffff166000809054906101000a900473ffffffffffffffffffffffffffffffffffffffff1673ffffffffffffffffffffffffffffffffffffffff16146107d5576040517f08c379a00000000000000000000000000000000000000000000000000000000081526004018080602001828103825260208152602001807f4f776e61626c653a2063616c6c6572206973206e6f7420746865206f776e657281525060200191505060405180910390fd5b600073ffffffffffffffffffffffffffffffffffffffff168173ffffffffffffffffffffffffffffffffffffffff16141561085b576040517f08c379a00000000000000000000000000000000000000000000000000000000081526004018080602001828103825260268152602001806109756026913960400191505060405180910390fd5b8073ffffffffffffffffffffffffffffffffffffffff166000809054906101000a900473ffffffffffffffffffffffffffffffffffffffff1673ffffffffffffffffffffffffffffffffffffffff167f8be0079c531659141344cd1fd0a4f28419497f9722a3daafe3b4186f6b6457e060405160405180910390a3806000806101000a81548173ffffffffffffffffffffffffffffffffffffffff021916908373ffffffffffffffffffffffffffffffffffffffff16021790555050565b60008060008060008060149054906101000a900469ffffffffffffffffffff16600154600254600354600460009054906101000a900469ffffffffffffffffffff16945094509450945094509091929394565b60003390509056fe4f776e61626c653a206e6577206f776e657220697320746865207a65726f2061646472657373a264697066735822122016c8195de5bd05513098245e52940ed1b1394930cc4723360dd6f6f2acb078c164736f6c63430006060033",
  "compiler": {
    "name": "solc",
    "version": "0.6.6+commit.6c089d02.Emscripten.clang",
    "optimizer": {
      "enabled": false,
      "runs": 200
    },
    "evmVersion": "petersburg"
  }
}